:020000040800F2
:10000000E80400203D0100082F1B0008CB17000862
:100010002D1B0008EB070008091E00080000000067
:10002000000000000000000000000000111C00089B
:1000300031090008000000008D1B0008131C000897
:100040005701000857010008570100085701000830
:100050005701000857010008570100085701000820
:100060005701000857010008570100085701000810
:100070005701000857010008570100085701000800
:1000800057010008570100085701000857010008F0
:1000900057010008570100085701000857010008E0
:1000A00057010008570100085701000857010008D0
:1000B00057010008570100085701000857010008C0
:1000C00057010008570100085701000857010008B0
:1000D00057010008570100085701000857010008A0
:1000E0005701000857010008570100085701000890
:1000F00057010008000000005701000857010008E0
:10010000570100085701000857010008570100086F
:1001100057010008570100085701000800000000BF
:1001200057010008DFF810D000F0DEFA0048004761
:100130006D270008AFF30080E804002006488047E0
:1001400006480047FEE7FEE7FEE7FEE7FEE7FEE7BC
:10015000FEE7FEE7FEE7FEE7791C00082501000840
:100160002DE9F05F0546002092469B4688460646EC
:10017000814640241BE0284641464746224600F07F
:10018000B4F853465A46C01A914110D31146184646
:10019000224600F09BF82D1A67EB01084F462246D5
:1001A0000120002100F092F817EB00094E41201EBB
:1001B000A4F10104DFDC484631462A464346BDE847
:1001C000F09FD2B201E000F8012B491EFBD270472C
:1001D0000022F6E710B513460A4604461946FFF713
:1001E000F0FF204610BD421C10F8011B0029FBD176
:1001F000801A704730B480EA010202F0004530F006
:10020000004221F0004013D090B1C30DD40DC2F3D1
:100210001601C0F31600E41A41F4000140F4000294
:100220007D34914201D3641C00E04900002C02DAC5
:1002300030BC002070474FF400000023914201D3EE
:10024000891A034340084FEA4101F7D151B1914265
:1002500002D14FF0004105E002D24FF0010101E070
:100260006FF0010103EBC450284430BC00F04DB8DE
:1002700096230022114600F051B800F0004230F001
:1002800000400AD0C10D01F56071C0F3160042EACA
:100290000151C208400711437047002001467047D2
:1002A00030B50B46014600202022012409E021FA46
:1002B00002F59D4205D303FA02F5491B04FA02F543
:1002C0002844151EA2F10102F1DC30BD202A04DB16
:1002D000203A00FA02F1002070479140C2F1200359
:1002E00020FA03F3194390407047202A04DB203A98
:1002F00021FA02F00021704721FA02F3D040C2F146
:10030000200291400843194670470029A8BF704752
:10031000401C490008BF20F00100704710B4B0FA3B
:1003200080FC00FA0CF050EA010404BF10BC7047D6
:1003300049B1CCF1200421FA04F411FA0CF118BFF0
:10034000012121430843A3EB0C01CB1D4FEA0061BF
:100350004FEA102042BF002010BC704700EBC35092
:1003600010440029A4BF10BC7047401C490008BFBE
:1003700020F0010010BC70472DE9FE4F804681EA55
:100380000300C00F0C46009021F0004123F000450F
:10039000B8EB0200A94105D24046214690461C46D2
:1003A0000B46024623F00040104347D0270DC7F309
:1003B0000A00C3F30A510290401A019040286BDAF8
:1003C000C3F3130040F4801B0098924620B1002331
:1003D000D2EB030A63EB0B0B01985946C0F14002C4
:1003E0005046FFF773FF06460D4650465946019AA0
:1003F00000F08CF910EB08006141002487EA1152EB
:1004000084EAE7731A4340D0009A62B3019A012A42
:100410004FEA075215DC001B61EB02014FF000426E
:1004200002EA0752CDE90042001C41F58011324634
:100430002B4600F08CF903B0BDE8F08F4046214612
:10044000F9E7001B61EB0201001C41F58013001865
:100450005B412018A2F5001747EB030140EAD57075
:10046000B6196D4111E06D084FEA360645EAC075D0
:100470004FEA0752001B61EB0201001C41F580119D
:1004800049084FEA30000019514132462B4603B06B
:10049000BDE8F04F00F04CB9009801224000002365
:1004A000D0EB020263EBE073009821464FEAE07460
:1004B000B8EB000061EB0401E9E783F000435BE780
:1004C00081F0004158E72DE9FE4F81EA030404F072
:1004D000004421F0004100944FF0000B23F0004352
:1004E00050EA01045ED052EA03045BD0C3F30A541D
:1004F000C1F30A552C44A4F2F3340194A0FB025436
:10050000C1F3130141F48011C3F3130343F48013C7
:1005100001FB024400FB034E840A970A44EA81541B
:1005200047EA8357A4FB076802958D0A05FB0785F8
:100530004FEA932C04FB0C542705029D4FEA065802
:1005400047EA1637B5EB08056EEB070C870E920EDF
:1005500047EA811742EA8312A7FB0201B6EB0B01BF
:1005600064EB00042B0D43EA0C335E1844EB1C5083
:10057000DA465146E7FB0201C5F313044FEA0B3399
:1005800043EA14534FEA0432019C43EA0603A4F100
:100590000C040294009CCDE900B400F0D8F803B03C
:1005A000BDE8F08F00200146F9E72DE9F04D81EA22
:1005B000030404F0004B21F0004514464FF0000AFC
:1005C00023F0004150EA050220D054EA01021DD078
:1005D000C5F30A570246C5F31303C1F31300C1F371
:1005E0000A5640F4801543F48013A7EB0608101B4D
:1005F000D64608F2FD3873EB050002D308F1010876
:1006000001E092185B41B8F1000F03DA00200146C7
:10061000BDE8F08D00204FF48011064684460EE0C0
:10062000171B73EB050705D3121B63EB050306438A
:100630004CEA010C49084FEA300092185B4150EA3D
:100640000107EDD152EA030012D082EA040083EAE6
:100650000501084305D0101BAB4106D2012200233F
:1006600006E000224FF0004302E06FF00102531059
:100670001AEB06004CEB085110EB0A0041EB0B01A2
:10068000BDE8F04D00F054B8C1F30A52C1F31301B4
:1006900040F2FF3341F480119A4202DA0020014611
:1006A000704740F233439A42A2F2334202DC524294
:1006B000FFF71BBEFFF70ABE30B5041E71F1000440
:1006C00004DB4FF00044404264EB0101141E73F15F
:1006D000000405DB1C464FF00043524263EB040369
:1006E000994208BF904230BD064C074D06E0E068D5
:1006F00040F0010394E8070098471034AC42F6D369
:10070000FFF714FD2C2800084C280008202A06DBDF
:10071000CB17203A41FA02F043EAE07306E041FACF
:1007200002F3D040C2F120029140084319467047BD
:1007300010B5141E73F1000408DA401C41F10001E9
:1007400092185B411A4301D120F0010010BD2DE940
:10075000F04D92469B4611B1B1FA81F202E0B0FA37
:1007600080F220329046FFF7B1FD04460F4640EA82
:100770000A0041EA0B0153465A46084313D011467A
:1007800053EA010019D0C8F140025046FFF7ADFD11
:1007900005460E46504659464246FFF797FD084328
:1007A00005D0012004E020463946BDE8F08D002048
:1007B000054346EAE0762C4337430A986305E40A8A
:1007C000A0EB08000022FD0A44EA47540A3002D593
:1007D00000200146E9E7010510196941DDE90845F6
:1007E00000196941BDE8F04DA2E7FEE72DE9FC41A3
:1007F00005460C46002001F09BF9002001F0BCF9F1
:100800004FF4487000F096F8012001F0B5F91E2071
:1008100000F090F8012001F08BF9684600F03EF8F6
:1008200000231A466846815C521C1944D2B2CBB2EE
:10083000042AF8D39DF80400984216D1BDF80200AE
:10084000BDF8001040BA4EBAFFF712FD084F394606
:10085000FFF7D0FC28603046FFF70AFD3946FFF766
:10086000C9FC20600120BDE8FC810020FBE70000FE
:1008700000002041084A10B550600020518001243A
:1008800004FA00F30B4201D0107010BD401CC0B23E
:100890001028F5D310BD0000000000202DE9F04124
:1008A000064600242746282000F044F801F058F9B5
:1008B0000028FBD001F054F90028FBD11F254FF090
:1008C000010800BF01F04CF90028FBD0282000F0FF
:1008D00031F801F045F910B108FA05F0044301F0D0
:1008E0003FF90028FBD16D1E6DB2002DEADA072515
:1008F00001F036F90028FBD0282000F01BF801F0A9
:100900002FF918B108FA05F03843C7B201F028F9F9
:100910000028FBD16D1E6DB2002DE9DA200E30707B
:10092000200C7070200AB070F4703771BDE8F0814F
:10093000704700000449054A0968B1FBF2F14143E0
:10094000491EFDD2704700001C000020C0C62D00CB
:100950007047000070B5044600F004F90546601CBD
:1009600002D004484068044400F0FCF8401BA04258
:10097000FAD370BD100000202DE9FC4FDFF8A8A1CC
:10098000002301250AF1040B03244FF00F0C0BF197
:10099000040EC2E005FA03F6324071D04F68012F11
:1009A00005D0022F03D0112F01D0122F17D1D0F86C
:1009B00008905F0004FA07F829EA08090097D1F8BF
:1009C0000C8008FA07F848EA0908C0F80880476868
:1009D000B7430E79C6F300169E403E434660C66894
:1009E0004FEA430804FA08F7BE4301978F6807FAF5
:1009F00008F73743C7604E68022E01D0122E13D17C
:100A0000DE0800EB86060096366A5F07FF0E0CFADA
:100A100007F926EA0906D1F8109009FA07F949EA18
:100A20000609009EC6F820900668019FBE430F7914
:100A300007F0030707FA08F7374307604E68F60028
:100A40006AD53A4E376847F001073760366823F0B9
:100A5000030706F001060096354E3E44B146B768DE
:100A60009E074FEA16780CFA08F6B743314EB042AB
:100A700001D100261FE0304EB04202D101261AE01B
:100A80004AE02E4EB04201D1022614E02C4EB04274
:100A900001D103260FE02B4EB04201D104260AE01B
:100AA000294EB04201D1052605E0284EB04201D1C1
:100AB000062600E0072606FA08F63E43C9F8086055
:100AC000DAF800605746D1F8048096435FEAC838E8
:100AD00000D516433E60DBF800605F46D1F8048025
:100AE00096435FEA883800D516433E60DEF8006022
:100AF0007746D1F8048096435FEAC82800D51643AC
:100B00003E60094F0C373E68D1F8048096435FEA97
:100B1000882800D516433E605B1C0A6832FA03F64B
:100B20007FF438AFBDE8FC8F00040140203802405C
:100B300000000140000002400004024000080240A2
:100B4000000C024000100240001402400018024055
:100B50000069084000D0012070470AB181617047E8
:100B60000904FBE70148806870470000100000207E
:100B700070B5040025D094F83D00002520B984F814
:100B80003C50204600F04EF9242084F83D002068B7
:100B9000016821F0010101602068016841F4004111
:100BA00001602068016821F40041016000F0D0FA82
:100BB0004D4A6168914201D84C4900E04C49884255
:100BC00001D2012070BD4B492368B0FBF1F15E6892
:100BD00026F03F060E435E606368934206D94FF4E9
:100BE000967359434FF47A73B1FBF3F12368491CB0
:100BF0001E6A26F03F06314319626168914210D89F
:100C00004900401EB0FBF1F2521CC2F30B02042A51
:100C100001D2042022E0B0FBF1F0401CC0F30B0035
:100C20001CE0A268F2B301EBC10303EB0116431E03
:100C3000B3FBF6F35B1C43F480431B0549D092B32E
:100C400001EBC10202EB0111401EB0FBF1F0401CB0
:100C5000C0F30B0040F4804040F400402168CA69B2
:100C60004CF6FF739A431043C861D4E9071001435F
:100C70002068026822F0C00211430160D4E9030138
:100C800001432068826848F2FF339A431143816030
:100C9000D4E9050108432168CA6822F0FF02104325
:100CA000C86001E00EE016E02068016841F0010133
:100CB00001602564202084F83D00256384F83E50BF
:100CC000002070BD01EB4106431EB3FBF6F35B1C35
:100CD000B3E70120C2E701EB4101401EB0FBF1F098
:100CE000401CC0F30B00B7E7A086010080841E0003
:100CF00000093D0040420F002DE9F84F1F46904685
:100D00008A460446DDF82890FFF72CFF054694F844
:100D10003D0020287FD1192301224049204600951B
:100D200000F0E0FD002876D194F83C00012872D054
:100D3000012084F83C0020680168C90703D10168DC
:100D400041F0010101602068016821F40061016047
:100D5000212084F83D00102084F83E0000262664FF
:100D6000C4F824806785608D20852D48E0622B467D
:100D70004A465146204600F041FD90B9206841693D
:100D80008069009036E02A464946204600F029FE58
:100D900050B1206C042804D12068016841F400712E
:100DA00001600120BDE8F88F606A21680078086161
:100DB000606A401C6062618D491E6185218D491EFB
:100DC00089B2218522685369DB435B070BD451B19B
:100DD00000781061606A401C6062608D401E608512
:100DE000208D401E20852A464946204600F054FDAD
:100DF0000028CED1208D0028C5D154F83D0B0168C4
:100E000041F400710160202004F81E09E67766773E
:100E10000020C7E7FFE70220C4E70000020010003F
:100E20000000FFFF10B586B0044614216846FFF7A6
:100E3000CFF914492068884221D11348016841F054
:100E4000020101600068694600F0020005904FF45D
:100E50004070009012200190012002900320039026
:100E6000042004900948FFF787FD0748083001680F
:100E700041F400110160006800F40010059006B014
:100E800010BD0000005400401C3802400004024025
:100E90000248816842681144816070471000002058
:100EA00010B50024032000F06FF8002000F008F8CF
:100EB00008B1012401E000F025F8204610BD000033
:100EC00070B50E4E05460024706898B14FF47A71E3
:100ED000B1FBF0F00A490968B1FBF0F000F09EFBAD
:100EE00040B9102D06D200222946501E00F02CF8E1
:100EF000356000E00124204670BD00001000002095
:100F00001C0000200F4882B0016841F000410160E0
:100F1000016801F000410091011F0A6842F00102DE
:100F20000A60096801F001010091016841F08051F7
:100F30000160006800F080500090072002B000F0CF
:100F400023B8000024380240F0B40E4B1B680C4656
:100F5000C3F30223C3F10705042D00D90425191D8D
:100F6000072901D2002300E0DB1E012606FA05F165
:100F7000491E214099409E40761E16403143F0BCE8
:100F800000F058BF0CED00E0064900F007020868C9
:100F90004FF6FF03184040EA0220034A104308605E
:100FA000704700000CED00E00000FA052DE9F04765
:100FB0000E46050079D0DFF88481D8F8000000F0F3
:100FC0000100B04214D2012E05D1D8F8001041F032
:100FD0000401C8F80010D8F8001021F001013143D5
:100FE000C8F80010D8F8000000F00100B0425CD151
:100FF0002878534C800705D52068A96820F0F000B8
:10100000084320602878C0075CD04D4968680839DB
:1010100002281AD003281BD0096801281BD0890593
:10102000002966DA216821F0030101432160FFF7FE
:1010300099FD6968074641F28830022914D00329D6
:1010400020D0012981462AD038E009688903E7E7E2
:1010500009688901E4E78907E2E700BFFFF782FD3D
:10106000C11B494501D926E081462068C0F38100B3
:101070000228F3D126E000BFFFF774FDC11B4945EC
:1010800001D918E081462068C0F381000328F3D11C
:1010900018E000BFFFF766FDC11B49450BD820686B
:1010A000C0F381000128F5D10CE022E0FFF75AFDE2
:1010B000C11B494502D90320BDE8F087206810F024
:1010C0000C0FF3D1D8F80010404601F00101B142F5
:1010D00011D9012E03D1016841F0040101600168BA
:1010E00021F0010131430160006800F00100B042CD
:1010F00001D00120E0E72878400705D52068E9689D
:1011000020F4E060084320602878000706D52068B6
:10111000296920F4605040EAC100206000F038F8EE
:101120002168084AC1F30311515CC84006490860B0
:1011300006480068BDE8F047FFF7C2BE003C024029
:1011400008380240112800081C0000201000002070
:101150000448054900680968044AC1F30221515C4A
:10116000C84070471C0000200838024021280008B1
:101170000448054900680968044AC1F3C221515C6A
:10118000C84070471C000020083802402128000891
:1011900070B5154D2968154801F00C02042A0CD0D1
:1011A0004410082A0AD00C2A0AD0281F0068C0F36D
:1011B00042314FF40040491C884070BD204670BD4C
:1011C0000B4AC1F38343D35CC1F381522968521C9B
:1011D000C90302D5A3FB040101E0A3FB0001002326
:1011E000FEF7BEFF70BD0000083802400024F40086
:1011F000082800082DE9F84F04007DD0FC4801685C
:10120000006801F00C0700F480362078F94DC00723
:1012100041D0082F12D00C2F02D1B6F5803F0DD04F
:101220006068012811D008B1052818D0286820F47A
:1012300080302860286820F4802009E02868800336
:1012400029D560680028D8D025E0286840F480308F
:101250002860606890B1FFF785FC80460AE0286846
:1012600040F480202860F0E7FFF77CFCA0EB08004A
:1012700064287BD828688003F6D50CE0FFF772FC61
:10128000804605E0FFF76EFCA0EB08006428F0D86C
:1012900028688003F6D42078DFF85CB3DFF85C833D
:1012A00080074FF001094FF0000A35D5042F0AD00E
:1012B0000C2F00D13EB1E068F8B1C8F80090FFF7FC
:1012C00051FC06460BE0286880070BD5E068012832
:1012D00012D107E0FFF746FC801B0228C9D8286816
:1012E0008007F7D5DBF80010226921F4F85141EAB4
:1012F0000221CBF800100FE077E1C8F800A0FFF75B
:1013000031FC064605E000BFFFF72CFC801B0228DD
:10131000AFD828688007F7D42078C00674D53FB1CD
:10132000A069E0B3C8F82090FFF71CFC06464AE02D
:101330002868800502D5A069002884D0206ADBF8DF
:1013400000105E4601F46041884210D900F020FC94
:101350000028BDD13068216A20F460400843306025
:10136000217F306861F31F6030600FE096E03168E4
:1013700021F4604101433160217F306861F31F60D7
:101380003060206A00F004FC0028A1D1216A4FF4EB
:10139000004009EB513188409549096800E025E09B
:1013A000974AC1F30311515CC840964908609648BA
:1013B0000068FFF785FD00286FD125E0FFF7D2FB1D
:1013C000801B02286AD828688005F7D5DBF8001052
:1013D000226A21F460411143CBF80010227FDBF830
:1013E000001062F31F61CBF800100DE0C8F820A0D8
:1013F000FFF7B8FB064604E0FFF7B4FB801B0228AA
:101400004CD828688005F7D42078804E000722D574
:101410007F48616981B1C0F80090FFF7A3FB834664
:1014200006E000BFFFF79EFBA0EB0B00022835D8BB
:1014300030688007F6D50EE0C0F800A0FFF792FBF9
:10144000834605E0FFF78EFBA0EB0B00022825D8B2
:1014500030688007F6D4207840076DD56B484FF090
:10146000000B10380068C0000BD4684810380168C1
:1014700041F08051016000684FF0010B00F0805096
:10148000009064480168C90514D4016841F4807172
:101490000160FFF767FB009008E08DE079E000BF96
:1014A000FFF760FB0099401A642872D85948006819
:1014B000C005F5D5A06801280AD008B1052811D0CB
:1014C000306820F480703060306820F4806002E082
:1014D000306840F480703060A068A8B1FFF742FB2C
:1014E00000900DE0306840F480603060F0E700BFAD
:1014F000FFF738FB0099411A41F2883081425AD8EF
:1015000030688005F4D50EE0FFF72CFB009007E073
:10151000FFF728FB0099411A41F2883081424AD8EE
:1015200030688005F4D4BBF1000F05D0374810387F
:10153000016821F080510160606A58B30C2F41D0DE
:101540000228504605D0C8F86000FFF70BFB0446A0
:1015500034E04746C8F86000FFF704FB064604E0A5
:10156000FFF700FB801B022825D828688001F7D4EC
:10157000D4E90A1001431E48226B036823F47D035B
:101580001A4311430160C7F86090FFF7EBFA044675
:1015900007E010E040E000BFFFF7E4FA001B02287C
:1015A00009D828688001F7D536E000BFFFF7DAFADE
:1015B000001B022802D90320BDE8F88F28688001AB
:1015C000F4D429E00128F7D009480068A26A00F4A1
:1015D0008031914209D1E26A00F47011914204D144
:1015E000216B00F44000884216D00120E4E700009F
:1015F00008380240003802400438024000004742E8
:10160000112800081C00002010000020343802407F
:1016100080064742007000400020CDE710B5401E14
:10162000B0F1807F01D3012010BD4FF0E024606154
:101630000F21601700F0FEFB0020A0610720206151
:10164000002010BD70B5040004D094F839000025C6
:1016500010B106E0012070BD84F83850204600F03B
:1016600023F8242084F839002068C16821F400514F
:10167000C160204600F008FB2068016921F4904118
:1016800001612068416921F02A0141612068C16837
:1016900041F40051C160E563202084F8390084F8EA
:1016A0003A00002070BD000010B586B00446142139
:1016B0006846FEF78DFD13492068884220D1124804
:1016C000016841F400310160006800F400300590C9
:1016D0000D480838016841F0010101600068694661
:1016E00000F0010005900C200090022001900020E5
:1016F000029003200390072004900448FFF73CF970
:1017000006B010BD004400402438024000000240F2
:101710002DE9F843044690F839001F4616460D4659
:10172000202850D1B5B1AEB194F8380001284AD084
:10173000012084F838004FF00008C4F83C802120D4
:1017400084F83900FFF70EFAA6848146E68484F80F
:10175000388026E00120BDE8F883E08C401EE0845C
:10176000A0684B46B0F5805F4FF000024FF080015B
:101770002046009703D000F015FBE8B90DE000F01B
:1017800011FBC8B928882168C0F3080048602069A7
:1017900008B16D1C05E0AD1C03E0216815F8010BD4
:1017A0004860E08C0028D8D14B46002240212046DA
:1017B000009700F0F7FA08B10320CCE7202084F866
:1017C00039000020C7E70220C5E7FEE701684A6943
:1017D000D24352050FD46FF480624A61002140F871
:1017E000301F202242738173026942F004020261B9
:1017F000017301207047002070470000F8B50446CF
:10180000C06A1E460D461746082807D0012805D095
:1018100010F5803F02D0206B122804D120680168A7
:1018200041F480710160134600224FF001112046FF
:10183000009600F057F840B120680068C00502D556
:101840004FF4007020640320F8BD2069B0F5804F8C
:101850000ED00620216800EAD51040F0F0000861A3
:1018600033463A460B49204600F070F878B902E05A
:1018700005F0FE0000E0E8B2216808610549334642
:101880003A46891F204600F061F80028DCD001208C
:10189000F8BD00000800010070B516460D4604466C
:1018A0000DE02046FFF792FF08B1012070BD681CD3
:1018B00005D0FFF757F9801BA84207D835B120683B
:1018C0004069C0434007ECD4002070BD002044F8BC
:1018D000300F20216173A073216941F02001216143
:1018E0002073E2E72DE9F0471E4690460D46044678
:1018F000C1F30747DDF8209008E0701C06D0FFF721
:1019000031F9A0EB0900B0420FD876B12068012F61
:1019100018D0806925EA00000004000C14D00021D2
:101920004145EAD00020BDE8F087002044F8300FA0
:1019300020216173A073216941F02001216120738E
:101940000120F0E74069E5E70121E9E72DE9F047EB
:101950009A4691460E46044600254FF02008C1F3F2
:10196000074725E020684069C043400514D420683B
:10197000016841F40071016021686FF48060486182
:10198000256384F83D8084F83E50206C40F00400CC
:10199000206484F83C501FE0B9F1FF3F08D0FFF706
:1019A000E1F8A0EB0A0149450CD8B9F1000F09D0C4
:1019B0002068012F13D0806926EA00000004000C83
:1019C0000BD0CFE744F8305F84F80D80A573206911
:1019D00040F02000206125730120BDE8F0874069B8
:1019E000EAE770B516460D4604460DE02046FFF7BF
:1019F000EDFE08B1012070BD681C05D0FFF7B2F8FC
:101A0000801BA84207D835B120684069C043000652
:101A1000ECD4002070BD002044F8300F2021617309
:101A2000A073216941F0200121612073E2E70000E9
:101A300070B586B014216846FEF7CAFB1A480168E3
:101A400041F004010160016801F0040105910168A1
:101A500041F001010160016801F001010591016897
:101A600041F0020101600068104E00F002004FF4E6
:101A700008750590002229463046FFF76EF80024CD
:101A80004FF40050CDE90004694609480294FEF77E
:101A900073FF01200095CDE90104694630460394A7
:101AA000FEF76AFF06B070BD1C380240000002401D
:101AB000000802400D4810B50B4901600C49416017
:101AC00000214FF480428160C0E9031241618161CD
:101AD000C1610162FFF74CF8002803D0BDE8104057
:101AE000FEF736BF10BD0000005400405400002037
:101AF000A08601000C4810B50A4901604FF4E1319D
:101B00004160002181600C22C160C0E90412816142
:101B1000C161FFF797FD002803D0BDE81040FEF734
:101B200017BF10BD00440040A8000020FEE770472A
:101B300000B585B04FF4007100910021039102912E
:101B400010B1012803D003E00120019000E00191D1
:101B500069460248FEF710FF05B000BD00000240D4
:101B6000044810B541884068FEF7F2FF00F001001C
:101B700010BD0000000000200200034841884068BA
:101B800000D00122FEF7E9BF0000002070470000EE
:101B900038B51C49002309681B4A11F0F00F23D106
:101BA00018491C310C68E500184C03D5216801F474
:101BB000C0540EE00D6845F080550D600D6805F0CD
:101BC0008055009524680D6804F4C05425F08055B4
:101BD0000D60B4F5C05F07D1B0F5404F04D1106877
:101BE000012340F004001060106820F00100184349
:101BF0001060106800F00100984201D0012038BD4B
:101C0000002038BD08380240003C0240007000400F
:101C10007047FFF73DB9000010B592B03421684617
:101C2000FEF7D6FA14210DA8FEF7D2FA1148016882
:101C300021F4C05141F400610160012103910220AF
:101C40001021009000240491CDE9090480040B9038
:101C500000010C906846FFF7CDFA0F200D9003208D
:101C6000CDE90E04109401210DA81194FFF79EF9FF
:101C700012B010BD0070004002494FF000600860D3
:101C80007047000008ED00E02DE9F04104460068CF
:101C90000169E26821F44051114301612169A068A2
:101CA000E26908436169114322680843D16849F237
:101CB0000C6399430143D16020684169A26921F412
:101CC00040711143416136492068884202D1FFF7D3
:101CD0004FFA01E0FFF73CFA0246E3696420322143
:101CE000B3F5004F02EBC20303EB021362682BD083
:101CF0009200B3FBF2F5B5FBF0F5B3FBF2F66FF033
:101D000018077D4306EB8505B3FBF2F601EB0515DD
:101D1000B5FBF0F5B6FBF0F605F0F00505EB0615A2
:101D2000B3FBF2F6B3FBF2F2B2FBF0F27A4306EB4E
:101D3000820201EB0211B1FBF0F000F00F0021680C
:101D400028448860BDE8F0815200B3FBF2F6B6FB90
:101D5000F0F6B3FBF2F7B3FBF2F56FF0180C06FBED
:101D60000CF607EB860601EBC606B5FBF0F5B6FBF5
:101D7000F0F62D0106F0F80605EB4605B3FBF2F68A
:101D8000B3FBF2F2B2FBF0F202FB0CF206EB8202C2
:101D900001EBC201B1FBF0F000F00700CFE700005B
:101DA000003801402DE9F041984617460E4604469A
:101DB000069D1DE0681C1BD02DB1FEF7D3FEA0EBE5
:101DC0000800A84214D92068C16821F4D071C1600C
:101DD0002068416921F001014161202084F8390027
:101DE00084F83A00002084F838000320BDE8F08130
:101DF0002068006836EA000004D00020B842D9D03C
:101E00000020F3E70120F9E7FEE700000FB4084BDC
:101E100010B504A902AA039800F0EEF8044602A93E
:101E2000002000F06CFC204610BC5DF814FB0000A4
:101E3000FF2600080907090E002804DB00F1E02056
:101E400080F80014704700F00F0000F1E02080F8E7
:101E5000141D704702E008C8121F08C1002AFAD1F9
:101E600070477047002001E001C1121F002AFBD11A
:101E7000704700002DE9FF5F82B00021DDE90430EA
:101E8000020DDDF840B0034318D044F61050A2F222
:101E9000FF3242431514119801281FD0A5EB0B0007
:101EA000401C5FEA000A4FF000064E4FDFF8389101
:101EB000B046504615D5CAF1000413E0119801242C
:101EC0004AA3012801D16FEA0B010298119AC0E9D7
:101ED0000031C0E9024206B0BDE8F09FCBF100003E
:101EE000DFE704460021404A491842EB0450CDE99F
:101EF000001012E0E00707D032463B464046494614
:101F0000FEF7E1FA8046894632463B4610461946BE
:101F1000FEF7D9FA06460F466410002CEAD1DDE937
:101F20000401DDE90023BAF1000F06DAFEF7CBFA6F
:101F300042464B46FEF7C7FA05E0FEF736FB42463F
:101F40004B46FEF732FB04460E460022284BFEF7B6
:101F5000B3FB03D84FF0FF30014607E00022254BCA
:101F600020463146FEF708FAFEF78EFB102409E002
:101F7000002C0ADB0A220023FEF7F2F8039B303222
:101F80001A55641E50EA0102F2D1641C039AC4F18E
:101F900011031444119A012A03D0012208430DD1E0
:101FA0000AE0084304D000204FF0110B119072E7B3
:101FB000A3EB0B056D1E0DE05B4504DD4FF0000249
:101FC00005F1010504E003DA4FF00002A5F1010577
:101FD000002AECD002981199C0E90231C0E900450D
:101FE00079E70000000014400000F03F30000000DE
:101FF0000000F0430000E03F2DE9FF4F95B09A4606
:10200000884606460025EEE1252877D1002427469C
:10201000F94A0121039400E0044316F8013F203BF4
:1020200001FA03F01042F7D130782A2811D06FF06E
:102030002F033078A0F13002092A16D8039A44F011
:10204000020402EB820203EB42021044761C03906E
:10205000EFE758F8042B0392002A03DA504244F4C5
:102060000054039044F00204761C30782E2816D1D8
:1020700016F8010F44F004042A280DD06FF02F0247
:102080003078A0F13003092B09D807EB870302EB66
:102090004303C718761CF3E758F8047B761C3078A6
:1020A0006C280FD006DC4C2817D068280DD06A2881
:1020B00014D104E0742810D07A280FD10DE044F434
:1020C00000140AE044F4801401E044F440147278EF
:1020D000824202D104F58014761C761C3078662882
:1020E0000BD013DC582877D009DC002875D04528A0
:1020F000F6D04628F4D047281AD193E118E0632897
:1021000035D0642879D0652812D18BE1702873D03E
:1021100008DC6728F1D069286FD06E280DD06F28B1
:1021200006D1ACE073282CD0752874D0782853D011
:102130005246179990476D1C54E1C4F3025002288F
:1021400009D003280DD0D8F8001004280DD00D6058
:1021500008F1040846E1D8F80010EA17C1E9005276
:10216000F6E7D8F800100D80F2E70D70F0E718F8E8
:10217000041B8DF8001000208DF80100EB460120B3
:1021800003E058F804BB4FF0FF3061074FF0000147
:1021900002D40DE009F101018946B9420FDA814507
:1021A000F8DB1BF809100029F4D108E009F101015E
:1021B00089468142FADB1BF809100029F6D1039801
:1021C0005346A0EB090721463846179A00F080FADB
:1021D000284400EB090507E044E008E10DE01BF8A6
:1021E000010B524617999047B9F10109F7D25346AE
:1021F00021463846179AF2E039E00A21C4F3025228
:102200004FF0000B0091022A06D058F8040BC117BA
:10221000032A09D00AE023E008F1070020F00702B2
:10222000F2E80201904605E000B2C117042A01D18C
:1022300040B2C117002906DA0A460021404261EB8C
:1022400002012D2202E0220504D52B228DF8042064
:10225000012203E0E20701D02022F7E7914657E090
:102260000A2100E010214FF0000B00910BE010213B
:102270004FF0000B44F004040827009103E008200D
:102280004FF0000B0090C4F30252022A05D058F818
:10229000040B0021032A08D008E008F1070020F011
:1022A0000702F2E80201904603E080B2042A00D15E
:1022B000C0B24FF0000922072AD53278702A07D021
:1022C000DDF800C08CF0100C5CEA0B0C05D00EE0C1
:1022D00040228DF80420012208E050EA010306D0D4
:1022E00030238DF804308DF8052002229146009BA2
:1022F00083F0080353EA0B030AD150EA010201D12B
:10230000620705D530228DF804204FF001097F1EA9
:102310003278582A04D039A20C920CAA02920BE00F
:102320003BA2F9E75B46009AFDF71AFF0C9B9B5C0A
:10233000029A521E0292137050EA0102F2D10298E0
:1023400004A9081A00F1200B600702D524F4803498
:1023500000E001275F4502DDA7EB0B0000E0002055
:1023600000EB0B01009003984944401A0390E003EE
:1023700006D453462146179A039800F0A9F905445C
:10238000002706E001A85246C05D179990476D1CD2
:102390007F1C4F45F6DBE0030CD553462146179AC8
:1023A000039800F095F9054404E03020524617994F
:1023B00090476D1C0099481E00900029F5DC08E04C
:1023C0000298029952460078491C02911799904749
:1023D0006D1CBBF10001ABF1010BF1DC5BE100F026
:1023E00065F90544761C307800287FF40DAE19B0ED
:1023F0002846BDE8F08F0000092801003031323353
:102400003435363738396162636465660000000030
:10241000303132333435363738394142434445461A
:1024200000000000600700D4062708F1070020F034
:102430000700F0E80223804603F0004C5FEA0C003E
:1024400001D097A009E0200501D596A005E0E0079E
:1024500001D095A001E0AFF24C001390307823F04A
:10246000004365280CD006DC452809D046281DD03D
:1024700047287FD13BE0662818D067287AD136E01C
:102480000021112F01DB112000E0781CCDE90001B3
:1024900004A90CA8FFF7EEFCDDE90D010C9A4FF042
:1024A000000B07F10109109200914EE04FF000403F
:1024B0000097CDE9011004A90CA8FFF7DBFCDDE9CA
:1024C0000D020C9B0F994FF0000B91461093009258
:1024D00011B9791C00EB0109B7EB090003D4C0F175
:1024E000FF3B07F10109A9EB0700019042E0012F32
:1024F00000DA01270021112F01DD112000E038460C
:10250000CDE9000104A90CA8FFF7B4FCDDE90D0139
:102510000C9A00914FF0000BB946109221070FD48E
:10252000009A4A4503DA914601E0A9F10109B9F19F
:10253000010F05DD109AA9F10101515C3029F4D099
:10254000B84202DA10F1040F03DA0121CDE90110DB
:1025500010E0002803DC8344A9EB000102E0411CE9
:10256000494500DD8946A0EB0B00401C01904FF06F
:1025700000400290200705D40198484502DB4FF047
:10258000FF30019000208DF84B0002980DF14B07B1
:10259000B0F1004F25D002200C902B200D90029816
:1025A00000280CDA404202902D200D9007E00A210D
:1025B0000298FDF775FE3031029007F8011D0C9965
:1025C000481E0C900029F2DC02980028EFD1791EF9
:1025D0000D980870307800F0200040F0450007F8B2
:1025E000020D11A8C01BC01D02901398007800B105
:1025F000012000EB0901019801EBE0710298014410
:102600000398401A401E0390E00306D45346214627
:10261000179A039800F05CF805441398007818B1F5
:102620005246179990476D1CE00323D55346214627
:10263000179A039800F04CF805441BE0BBF1000F1B
:1026400007DB0098584504DD1098179910F80B0027
:1026500001E0179930205246904701980BF1010B89
:10266000401E05F10105019004D12E205246179914
:1026700090476D1CB9F10001A9F10109DEDC05E00C
:1026800017F8010B5246179990476D1C0299481E86
:1026900002900029F4DC53462146179A03989EE6DF
:1026A0002D0000002B000000200000002DE9F0416B
:1026B000044600251E461746880404D405E0394622
:1026C0002020B0476D1C641EF9D52846BDE8F08176
:1026D0002DE9F041044600251E469046C80301D569
:1026E000302700E02027880404D505E0414638461D
:1026F000B0476D1C641EF9D52846BDE8F0810A6814
:10270000531C0B60107070471CB57AB141F0C001CA
:1027100080228DF804208DF805104FF47A71009115
:10272000022301AA7C21FEF7E7FA1CBD41F08001DB
:10273000EEE700002DE9FC41054640200E468DF8ED
:10274000040000244FF47A770AE000BF8DF80500FA
:10275000022301AA7C2128460097FEF7CDFA641CCB
:10276000305D0028F2D1BDE8FC810000FEF798FB47
:10277000FFF752FAFFF75CF9FFF7BCF9FFF79AF998
:102780004FF400711748FEF775F8174C4FF4FA75BF
:102790001549091D081FFEF729F8002208211348D2
:1027A000FFF7B2FF2068FDF768FD02460B4610A157
:1027B0001348FFF72BFB12490C48FFF7BBFF012220
:1027C00008210A48FFF7A0FF0D48FDF70CFD82B273
:1027D0000A230B490B48FEF79BFF2846FEF7BAF881
:1027E000D6E700000000024008000020540000204E
:1027F00054656D7020284329203D20252E31660028
:1028000020000020A8000020030406080C10182057
:102810003000000000000000000102030406070869
:102820000900000000010203040000004C28000819
:102830000000002020000000541E00086C28000842
:1028400020000020C8040000641E000800000000F2
:102850000000000000000000000000001000000068
:0C286000010000000000000068FF1F00E5
:0400000508000125C9
:00000001FF
