:020000040800F2
:10000000100600203D010008152100089B1F000874
:1000100011210008F7060008F9260008000000007A
:10002000000000000000000000000000C5210008E2
:10003000310700080000000019210008C72100084E
:100040005701000857010008570100085701000830
:100050005701000857010008570100085701000820
:100060005701000857010008570100085701000810
:100070005701000857010008570100085701000800
:1000800057010008570100085701000857010008F0
:1000900057010008570100085701000857010008E0
:1000A00057010008570100085701000857010008D0
:1000B00055220008570100085701000857010008A1
:1000C00057010008570100085701000857010008B0
:1000D00057010008E92600085701000857010008E9
:1000E0005701000857010008570100085701000890
:1000F00057010008000000005701000857010008E0
:10010000570100085701000857010008570100086F
:1001100057010008570100085701000800000000BF
:1001200057010008DFF810D000F064FA00480047DB
:1001300011300008AFF30080100600200648804709
:1001400006480047FEE7FEE7FEE7FEE7FEE7FEE7BC
:10015000FEE7FEE7FEE7FEE745220008250100086E
:100160002DE9F05F0546002092469B4688460646EC
:10017000814640241BE0284641464746224600F07F
:1001800071F853465A46C01A914110D31146184689
:10019000224600F058F82D1A67EB01084F46224618
:1001A0000120002100F04FF817EB00094E41201EFE
:1001B000A4F10104DFDC484631462A464346BDE847
:1001C000F09FD2B201E000F8012B491EFBD270472C
:1001D0000022F6E710B513460A4604461946FFF713
:1001E000F0FF204610BD421C10F8011B0029FBD176
:1001F000801A704700F0004230F000400AD0C10D74
:1002000001F56071C0F3160042EA0151C2084007CF
:100210001143704700200146704730B50B46014638
:1002200000202022012409E021FA02F59D4205D395
:1002300003FA02F5491B04FA02F52844151EA2F13F
:100240000102F1DC30BD202A04DB203A00FA02F181
:10025000002070479140C2F1200320FA03F31943B4
:1002600090407047202A04DB203A21FA02F0002156
:10027000704721FA02F3D040C2F1200291400843B6
:10028000194670472DE9FE4F804681EA0300C00FF2
:100290000C46009021F0004123F00045B8EB02002D
:1002A000A94105D24046214690461C460B460246CF
:1002B00023F00040104347D0270DC7F30A00C3F3D3
:1002C0000A510290401A019040286BDAC3F31300E0
:1002D00040F4801B0098924620B10023D2EB030A21
:1002E00063EB0B0B01985946C0F140025046FFF7F3
:1002F000AAFF06460D4650465946019A00F08CF971
:1003000010EB08006141002487EA115284EAE77388
:100310001A4340D0009A62B3019A012A4FEA075269
:1003200015DC001B61EB02014FF0004202EA0752AC
:10033000CDE90042001C41F5801132462B4600F009
:100340008CF903B0BDE8F08F40462146F9E7001B69
:1003500061EB0201001C41F5801300185B4120187D
:10036000A2F5001747EB030140EAD570B6196D41BD
:1003700011E06D084FEA360645EAC0754FEA0752AC
:10038000001B61EB0201001C41F5801149084FEA96
:1003900030000019514132462B4603B0BDE8F04F02
:1003A00000F04CB90098012240000023D0EB02027B
:1003B00063EBE073009821464FEAE074B8EB00006D
:1003C00061EB0401E9E783F000435BE781F0004162
:1003D00058E72DE9FE4F81EA030404F0004421F0C0
:1003E000004100944FF0000B23F0004350EA010459
:1003F0005ED052EA03045BD0C3F30A54C1F30A553A
:100400002C44A4F2F3340194A0FB0254C1F3130171
:1004100041F48011C3F3130343F4801301FB02443E
:1004200000FB034E840A970A44EA815447EA835743
:10043000A4FB076802958D0A05FB07854FEA932CFC
:1004400004FB0C542705029D4FEA065847EA16376D
:10045000B5EB08056EEB070C870E920E47EA811785
:1004600042EA8312A7FB0201B6EB0B0164EB000426
:100470002B0D43EA0C335E1844EB1C50DA46514610
:10048000E7FB0201C5F313044FEA0B3343EA1453AD
:100490004FEA0432019C43EA0603A4F10C040294DF
:1004A000009CCDE900B400F0D8F803B0BDE8F08FAF
:1004B00000200146F9E72DE9F04D81EA030404F03C
:1004C000004B21F0004514464FF0000A23F0004194
:1004D00050EA050220D054EA01021DD0C5F30A57A4
:1004E0000246C5F31303C1F31300C1F30A5640F4E7
:1004F000801543F48013A7EB0608101BD64608F2BC
:10050000FD3873EB050002D308F1010801E09218F1
:100510005B41B8F1000F03DA00200146BDE8F08D21
:1005200000204FF48011064684460EE0171B73EB43
:10053000050705D3121B63EB050306434CEA010CC8
:1005400049084FEA300092185B4150EA0107EDD1AB
:1005500052EA030012D082EA040083EA050108434C
:1005600005D0101BAB4106D20122002306E0002279
:100570004FF0004302E06FF0010253101AEB060047
:100580004CEB085110EB0A0041EB0B01BDE8F04DBC
:1005900000F054B8C1F30A52C1F3130140F2FF3323
:1005A00041F480119A4202DA00200146704740F27D
:1005B00033439A42A2F2334202DC5242FFF752BE68
:1005C000FFF741BE30B5041E71F1000404DB4FF0AB
:1005D0000044404264EB0101141E73F1000405DB8A
:1005E0001C464FF00043524263EB0403994208BF9C
:1005F000904230BD064C074D06E0E06840F0010334
:1006000094E8070098471034AC42F6D3FFF78EFD0C
:1006100084300008A4300008202A06DBCB17203ADB
:1006200041FA02F043EAE07306E041FA02F3D040F7
:10063000C2F12002914008431946704710B5141EBC
:1006400073F1000408DA401C41F1000192185B418B
:100650001A4301D120F0010010BD2DE9F04D924662
:100660009B4611B1B1FA81F202E0B0FA80F2203279
:100670009046FFF7E8FD04460F4640EA0A0041EACB
:100680000B0153465A46084313D0114653EA010062
:1006900019D0C8F140025046FFF7E4FD05460E466A
:1006A000504659464246FFF7CEFD084305D001208B
:1006B00004E020463946BDE8F08D0020054346EAB7
:1006C000E0762C4337430A986305E40AA0EB080060
:1006D0000022FD0A44EA47540A3002D500200146B0
:1006E000E9E7010510196941DDE90845001969418B
:1006F000BDE8F04DA2E700BFFEE700000246094852
:10070000026009480180002008E0012383400B407B
:1007100013B1064B187003E0431CD8B21028F4DB69
:1007200000BF7047000000200400002006000020E9
:10073000704772B600BFFEE770B50446002594F816
:100740002100022803D00420A063012520E02068B6
:10075000006820F00E00216808602068006820F022
:1007600001002168086094F8400000F01C0101209D
:100770008840E16B4860012084F8210000BF002020
:1007800084F8200000BF606B10B12046616B884781
:10079000284670BD70B5044600F00CF906462546A3
:1007A000681C10B104480068054400BF00F002F95D
:1007B000801BA842FAD370BD3000002078B50346F4
:1007C000002200240020D4E0012696400D6805EAAE
:1007D0000604002C71D04D68012D08D04D68022D03
:1007E00005D04D68112D02D04D68122D13D1986897
:1007F00056000325B540A8435600CD68B5402843B0
:100800009860586801259540A8430D79C5F30015F7
:10081000954028435860D86856000325B540A84342
:1008200056008D68B5402843D8604D68022D02D02F
:100830004D68122D13D1D60803F1200555F8260076
:100840005507EE0E0F25B540A8435607F60E0D6965
:10085000B5402843D60803F1200545F8260018685E
:1008600056000325B540A8430D7905F00305560051
:10087000B540284318604D6805F08055B5F1805F9C
:1008800076D100BF3E4D2D6845F001053C4E3560E8
:1008900035462D6805F00105009500BF00BF394DB4
:1008A000960855F8260095072E0F0F25B540A8434A
:1008B000354DAB4202D100251FE059E0334DAB422C
:1008C00001D1012519E0324DAB4201D1022514E0DE
:1008D000304DAB4201D103250FE02F4DAB4201D18A
:1008E00004250AE02D4DAB4201D1052505E02C4D34
:1008F000AB4201D1062500E007259607360FB5402B
:100900002843204D960845F82600264D2868A04328
:100910004D6805F48035B5F5803F00D12043214D69
:1009200028602D1D2868A0434D6805F40035B5F5F5
:10093000003F00D120431B4D2D1D28602D1D286830
:10094000A0434D6805F48015B5F5801F00D1204304
:10095000144D083528602D1D2868A0434D6805F406
:100960000015B5F5001F00D120430E4D0C35286051
:10097000521C0D68D540002D7FF426AF78BD0000D5
:1009800020380240080001400000024000040240FC
:1009900000080240000C0240001002400014024017
:1009A00000180240000401400AB1816101E00B041B
:1009B00083617047014800687047000028000020EC
:1009C00070B504460CB9012070BD94F83D0028B9FB
:1009D000002084F83C00204600F0DAF8242084F857
:1009E0003D002068006820F0010021680860206850
:1009F000006840F40040216808602068006820F426
:100A000000402168086000F0F5FA05465C4960681E
:100A1000884206D85B48854201D2012007E00020C9
:100A200005E05948854201D2012000E0002001285C
:100A300000D1C9E75548B5FBF0F62068406820F0C2
:100A40003F003043216848604D496068884201D8C2
:100A5000701C07E04FF4967070434FF47A71B0FB4E
:100A6000F1F0401C2168096A21F03F010843216828
:100A7000086243496068884214D8681E616849006A
:100A8000B0FBF1F0401CC0F30B00042801D204209D
:100A90003DE0681E61684900B0FBF1F0401CC0F306
:100AA0000B0034E0A06838B9681E616801EB4101B1
:100AB000B0FBF1F0401C0AE0681E616801EBC10266
:100AC00002EB0111B0FBF1F0401C40F48040C0F398
:100AD0000B0008B901201AE0A06848B9681E6168D7
:100AE00001EB4101B0FBF1F0401CC0F30B000CE046
:100AF000681E616801EBC10202EB0111B0FBF1F06D
:100B0000401CC0F30B0040F4804040F400402168DA
:100B1000C9694CF6FF72914308432168C861D4E962
:100B2000070108432168096821F0C00108432168D2
:100B30000860D4E9031008432168896848F2FF324D
:100B40009143084321688860D4E90501084321687E
:100B5000C96821F0FF0108432168C8602068006867
:100B600040F001002168086000202064202084F803
:100B70003D000020206384F83E0000BF24E7000011
:100B8000A086010080841E0000093D0040420F0045
:100B900010B586B00446142101A8FFF719FB1949C6
:100BA000206888422BD100BF1748006840F002003F
:100BB000154908600846006800F00200009000BF78
:100BC00000BFC0200190122002900120039003205A
:100BD00004900420059001A90C48FFF7EFFD00BF29
:100BE00009480830006840F40010074908310860DF
:100BF0000846006800F40010009000BF00BF06B077
:100C000010BD0000005400401C38024000040240A7
:100C100003480068034909680844014908607047AF
:100C2000280000203000002010B50024032000F030
:100C3000B7F8002000F008F808B1012401E000F046
:100C40002FF8204610BD000070B50446002511485D
:100C50000068D8B10F4800684FF47A71B1FBF0F02A
:100C60000D490968B1FBF0F6304600F01BFD58B99C
:100C7000102C07D200222146501E00F053F80748DE
:100C8000046004E0012502E0012500E0012528467A
:100C900070BD000030000020340000202C00002037
:100CA00008B500BF1648006840F0004014490860CD
:100CB0000846006800F00040009000BF00BF00BF81
:100CC000081F006840F00100091F0860084600681E
:100CD00000F00100009000BF00BF00BF081D0068C9
:100CE00040F08050091D08600846006800F0805000
:100CF000009000BF00BF072000F052F808BD0000C0
:100D00002438024001460846002809DB00F01F0392
:100D100001229A4043099B0003F1E023C3F800211C
:100D200000BF70472DE9F05F80460D46164600274C
:100D300001F0F8FC074639462A46334601F0070021
:100D4000C0F1070ABAF1040F02D94FF0040A01E01A
:100D5000C0F1070AD14600F1040ABAF1070F02D226
:100D60004FF0000A01E0A0F1030AD4464FF0010A57
:100D70000AFA09FAAAF1010A0AEA020A0AFA0CFABC
:100D80004FF0010B0BFA0CFBABF1010B0BEA030B61
:100D90004AEA0B042146404601F0CCFCBDE8F09F36
:100DA00000BF00F00702064B19684FF6FF03194019
:100DB000044B0B4343EA0221014B196000BF70470B
:100DC0000CED00E00000FA052DE9F04104460D4667
:100DD00014B90120BDE8F0817E48006800F00100F0
:100DE000A84218D200BF012D05D17A48006840F012
:100DF0000400784908607748006820F00100284323
:100E00007449086000BF0846006800F00100A8426D
:100E100001D00120DEE7207800F00200022807D18F
:100E20006D48006820F0F000A16808436A49086036
:100E3000207800F0010000287FD06068022807D1E8
:100E400065480838006800F40030F8B90120C1E7AF
:100E50006068032807D160480838006800F0007017
:100E6000A0B90120B6E76068012807D15A480838C0
:100E7000006800F0020048B90120ABE75648083886
:100E8000006800F4007008B90120A3E75248006828
:100E900020F00300616808434F490860FFF78AFDAE
:100EA00006466068022810D108E0FFF783FD801B2A
:100EB00041F28831884201D903208BE74648006817
:100EC00000F00C000828F0D137E06068032810D14A
:100ED00008E0FFF76FFD801B41F28831884201D99D
:100EE000032077E73C48006800F00C000C28F0D1A4
:100EF00023E06068012810D108E0FFF75BFD801B4C
:100F000041F28831884201D9032063E73248006802
:100F100000F00C000428F0D10FE008E0FFF74AFDD4
:100F2000801B41F28831884201D9032052E72A48C8
:100F3000006800F00C000028F0D12648006800F09E
:100F40000100A84218D900BF012D05D12148006831
:100F500040F004001F4908601E48006820F00100AE
:100F600028431C49086000BF0846006800F00100E3
:100F7000A84201D001202DE7207800F004000428C9
:100F800007D11548006820F4E060E1680843124981
:100F90000860207800F00800082808D10E48006892
:100FA00020F46050216940EAC1000B49086000F05C
:100FB00041F809490968C1F30311084A515CC84066
:100FC0000749086007480068FFF73EFE07463846B5
:100FD00000E70000003C0240083802406930000889
:100FE000340000202C0000200148006870470000F9
:100FF0003400002000B5FFF7F7FF04490968C1F38A
:101000000221034A515CC84000BD0000083802407C
:101010007930000800B5FFF7E7FF04490968C1F31C
:10102000C221034A515CC84000BD0000083802409C
:10103000793000082DE9F05F2248D0F8009009F0DF
:101040000C0070B3042804D0082804D00C2829D13F
:1010500003E01D4D32E01D4D30E01D48C9F38341D2
:1010600010F801A0C9F38150441C1648006800F430
:10107000803050B11548A0FB0A700146224600237B
:101080003846FFF76DF8064609E00F48A0FB0A70E6
:101090000146224600233846FFF762F806463546E9
:1010A0000CE000E000BF0748001F0068C0F3423BAF
:1010B0000BF1010001218140CD0300BF00BF284694
:1010C000BDE8F09F083802400024F40000127A00C6
:1010D000603000082DE9F843044614B90120BDE84A
:1010E000F883FE48006800F00C06FC48006800F435
:1010F0008037207800F00100002875D0082E04D039
:101100000C2E0ED1B7F5803F0BD1F448083800689B
:1011100000F40030002867D06068002864D1012006
:10112000DDE700BF6068012808D1EC480838006896
:1011300040F48030E949083908602DE0606868B9FA
:10114000E6480838006820F48030E449083908602F
:101150000846006820F4802008601DE060680528CB
:101160000DD1DE480838006840F48020DB4908399A
:1011700008600846006840F4803008600CE0D748FA
:101180000838006820F48030D449083908600846DF
:10119000006820F48020086000BF606890B1FFF70D
:1011A00009FC054606E0FFF705FC401B642801D951
:1011B000032094E7C9480838006800F4003000288C
:1011C000F1D011E0FFF7F6FB054606E0FFF7F2FB72
:1011D000401B642801D9032081E7C0480838006813
:1011E00000F400300028F1D1207800F0020002283D
:1011F00053D1042E02D00C2E17D1B7B9B7480838F6
:10120000006800F0020020B1E068012801D0012050
:1012100065E7B248001F006820F4F850216940EAF1
:101220000120AE49091F086037E0E06800B30120E3
:10123000AB490860FFF7BEFB054606E0FFF7BAFBC7
:10124000401B022801D9032049E7A4480838006858
:1012500000F002000028F1D0A048001F006820F430
:10126000F850216940EA01209C49091F086014E0F8
:1012700000209B490860FFF79DFB054606E0FFF74D
:1012800099FB401B022801D9032028E7934808381E
:10129000006800F002000028F1D1207800F0100072
:1012A000102871D1F6BB8D480838006800F4007032
:1012B00018B1A06908B9012011E78849091F206AFF
:1012C000096801F46041884219D9206A00F026FFBC
:1012D00008B1012003E78148001F006820F4604046
:1012E000216A08437D49091F0860217F7B48001F50
:1012F000006861F31F607949091F08601AE07748A8
:10130000001F006820F46040216A08437349091FE8
:101310000860217F7148001F006861F31F606F49FA
:10132000091F00E020E00860206A00F0F7FE08B125
:101330000120D4E60121206A01EB503101208840D0
:10134000C00366490968C1F30311664A515CC8408D
:101350006549086065480068FFF776FC8046B8F18B
:10136000000F42D04046BAE6A06948B301205C496C
:101370000862FFF71FFB054607E0FFF71BFB401B5A
:10138000022802D90320AAE62FE054480838006852
:1013900000F400700028F0D05048001F006820F4CE
:1013A0006040216A08434D49091F0860217F4B486E
:1013B000001F006861F31F604849091F086014E0BE
:1013C000002047490862FFF7F5FA054606E0FFF7F7
:1013D000F1FA401B022801D9032080E63F48083873
:1013E000006800F400700028F1D1207800F00800B7
:1013F00008282CD16069A8B101203D490860FFF799
:10140000D9FA054606E0FFF7D5FA401B022801D9B4
:10141000032064E631482C30006800F00200002808
:10142000F1D014E0002032490860FFF7C3FA054606
:1014300006E0FFF7BFFA401B022801D903204EE661
:1014400026482C30006800F002000028F1D12078F6
:1014500000F0040004286ED14FF000091F481C3032
:10146000006800F0805088B900BF1C481C3000683C
:1014700040F0805019491C3108600846006800F0AF
:101480008050009000BF00BF4FF00109194800686C
:1014900000F48070B0B91748006840F480701549B6
:1014A0000860FFF787FA054606E0FFF783FA401B5E
:1014B000642801D9032012E60E48006800F4807009
:1014C0000028F2D000BFA068012817D103482C30B3
:1014D000006840F4807001492C310DE0083802406A
:1014E0000000474269300008340000202C00002032
:1014F0008006474200700040086028E0A06858B9A4
:101500006648006820F480706449086008460068F6
:1015100020F4806008601AE0A06805280CD15F48BC
:10152000006840F480605D4908600846006840F447
:10153000807008600BE040E05848006820F480703C
:10154000564908600846006820F48060086000BFC3
:10155000A06898B1FFF72EFA054608E0FFF72AFACF
:10156000401B41F28831884201D90320B7E54B483E
:10157000006800F400700028F0D012E0FFF71AFABB
:10158000054608E0FFF716FA401B41F28831884211
:1015900001D90320A3E54148006800F40070002849
:1015A000F0D1B9F1010F07D13C481038006820F0A4
:1015B00080503A491039086000BF606AA8B30C2E09
:1015C00052D0606A022839D1002035490866FFF7F9
:1015D000F1F9054606E0FFF7EDF9401B022801D9B5
:1015E00003207CE52D483438006800F000700028A6
:1015F000F1D1D4E90A010843216B084327492C396A
:10160000096821F47D01084324492C390860012030
:1016100023490866FFF7CEF9054607E0FFF7CAF948
:10162000401B022802D9032059E535E01B48343815
:10163000006800F000700028F0D02DE0002018496C
:101640000866FFF7B7F9054606E0FFF7B3F9401B58
:10165000022801D9032042E510483438006800F020
:1016600000700028F1D117E0606A012800D136E54A
:101670000A482C38076807F48031A06A814209D1F2
:1016800007F47011E06A814204D107F44001206B35
:10169000814201D0012022E5002020E534380240BB
:1016A0000000474270B504462546681EB0F1807FB1
:1016B00001D301200FE0681E4FF0E02148610F21A7
:1016C0004FF0FF3001F036F800204FF0E021886144
:1016D00007200861002070BD30B502460B4600BFF0
:1016E00092F83800012801D1022030BD012082F893
:1016F000380000BF022082F8390010684468106882
:10170000816824F07004186804431068446010680D
:10171000B0F1804F0BD00E4D1068A84207D00D4D90
:101720001068A84203D00C4D1068A84205D121F0E2
:1017300080015868014310688160012082F83900F7
:1017400000BF002082F8380000BF00BFCDE70000D6
:1017500000040040000800400008014010B50446A5
:101760000CB9012010BD94F8390028B9002084F884
:101770003800204600F01AF8022084F83900211DB4
:10178000206800F06FFD012084F83E0000BF84F85F
:101790003A0001213B2001553C2001553D200155D7
:1017A00000BF012084F839000020DBE738B504468B
:1017B0002068B0F1804F15D100BF0B48006840F0A1
:1017C0000100094908600846006800F00100009027
:1017D00000BF00BF002211461C20FFF7A3FA1C2007
:1017E000FFF790FA38BD000024380240014691F816
:1017F0003900012801D001207047022081F839000A
:101800000868C06840F001000B68D8600868B0F153
:10181000804F0BD0104B0868984207D00F4B0868D8
:10182000984203D00E4B086898420CD10868806833
:1018300000F00702062A0CD00868006840F001009A
:101840000B68186005E00868006840F001000B684C
:1018500018600020D0E700000004004000080040AD
:10186000000801402DE9F04104460D4600BF94F800
:101870003800012802D10220BDE8F081012084F85F
:10188000380000BF022084F839002068866826F0FE
:10189000770626F47F46206886602868502833D073
:1018A0000CDC202850D004DC00284BD0102851D16B
:1018B00049E0302849D040284CD139E060282DD06B
:1018C000702807D0B0F5805F03D0B0F5005F41D13C
:1018D0000DE040E0D5E902136A68206800F00AFDD7
:1018E0002068866846F077062068866033E0D5E990
:1018F00002136A68206800F0FDFC2068806840F4EC
:1019000080402168886026E0EA686968206800F005
:1019100005FD5021206800F0F8FC1CE0EA686968C9
:10192000206800F00EFD6021206800F0EEFC12E05F
:10193000EA686968206800F0F1FC4021206800F046
:10194000E4FC08E000BF00BF00BF2968206800F089
:10195000DCFC00E000BF00BF012084F8390000BFBC
:10196000002084F8380000BF00BF85E7704710B53D
:10197000044620680069C0F34000D8B12068C06800
:10198000C0F34000B0B16FF002002168086101208F
:1019900020762068806900F0030018B12046FFF728
:1019A000E5FF05E0204600F08BF8204600F089F8BE
:1019B0000020207620680069C0F38000D8B120683C
:1019C000C068C0F38000B0B16FF004002168086106
:1019D000022020762068806900F4407018B120460B
:1019E000FFF7C4FF05E0204600F06AF8204600F04B
:1019F00068F80020207620680069C0F3C000D8B1E4
:101A00002068C068C0F3C000B0B16FF00800216862
:101A10000861042020762068C06900F0030018B136
:101A20002046FFF7A3FF05E0204600F049F82046D6
:101A300000F047F80020207620680069C0F300100D
:101A4000D8B12068C068C0F30010B0B16FF01000CA
:101A500021680861082020762068C06900F4407081
:101A600018B12046FFF782FF05E0204600F028F875
:101A7000204600F026F8002020762068006900F05B
:101A8000010058B12068C06800F0010030B16FF06B
:101A9000010021680861204600F014F82068006900
:101AA000C0F3801058B12068C068C0F3801030B116
:101AB0006FF0400021680861204600F067F810BD13
:101AC000704770472DE9FC4104461F48844239D1D4
:101AD0001E480068FEF78EFB05460E461C4800684F
:101AE000FEF788FB07463A460B461AA12548CDE982
:101AF000005600F003FE2348FEF775FB85B2642311
:101B00002A462049204800F0DBF910480068FEF71B
:101B100071FB05460E460E480068FEF76BFB074654
:101B20003A460B460BA11748CDE9005600F0E6FDFA
:101B30001448FEF758FB85B264232A46114912481F
:101B400000F0BEF9BDE8FC818C00002024000020DC
:101B5000200000200D0A54656D7020284329203D87
:101B60000920252E31660D0A48756D6964697479FE
:101B70002028252529203D0920252E316625250DE3
:101B80000A000000AC010020CC0000207047704724
:101B90002DE9F0470446206805682068C66820687B
:101BA00047694FF00008C14605F00F08B8F1000F73
:101BB0000AD105F0200038B106F0200020B12046FF
:101BC00000F0FDFBBDE8F087B8F1000F72D007F020
:101BD000010018B906F4907000286BD005F00100E0
:101BE00030B106F4807018B1E06B40F00100E063A2
:101BF00005F0040030B107F0010018B1E06B40F0CF
:101C00000200E06305F0020030B107F0010018B1F6
:101C1000E06B40F00400E06305F0080048B106F016
:101C2000200010B907F0010018B1E06B40F0080087
:101C3000E063E06B70B305F0200028B106F02000EF
:101C400010B1204600F0BBFB20684069C0F380194A
:101C5000E06B00F0080010B9B9F1000F23D0204666
:101C600000F08DFB2068406900F04000402816D14C
:101C70002068406920F0400021684861606B50B1E5
:101C80001748616B4863606BFEF756FD10B1606BDF
:101C9000416B88470CE02046FFF779FF08E02046BB
:101CA000FFF775FF04E02046FFF771FF0020E063B7
:101CB00088E7FFE705F0800030B106F0800018B13A
:101CC000204600F0A7FC7DE705F0400030B106F0AB
:101CD000400018B1204600F062FB73E700BF71E7D7
:101CE0006B23000810B504460CB9012010BDA06993
:101CF00000B100E000BF94F8390028B9002084F852
:101D00003800204600F028F8242084F839002068A4
:101D1000C06820F400502168C860204600F0A2FB93
:101D20002068006920F490402168086120684069BB
:101D300020F02A00216848612068C06840F4005003
:101D40002168C8600020E063202084F8390084F80E
:101D50003A000020CAE7000010B586B004461421FE
:101D600001A8FEF735FA23492068884240D100BF18
:101D70002148006840F480401F4908600846006818
:101D800000F48040009000BF00BF00BF081F006843
:101D900040F00100091F08600846006800F00100DB
:101DA000009000BF00BF4815019002200290002063
:101DB0000390032004900720059001A90F48FEF727
:101DC000FDFC4FF4806001900220029001200390FE
:101DD000032004900720059001A90848FEF7EEFCB7
:101DE000002211462520FEF79DFF2520FEF78AFFE1
:101DF00006B010BD0038014020380240000002400B
:101E000010B5034693F83A0020282FD101B10AB942
:101E1000012010BD00BF93F83800012801D1022035
:101E2000F7E7012083F8380000BF99629A85DA85C8
:101E30000020D863222083F83A0000BF002083F8F6
:101E4000380000BF1868C06840F480701C68E0600B
:101E50001868406940F001001C6860611868C0683B
:101E600040F020001C68E0600020D2E70220D0E7AC
:101E700010B504460D48844211D10D4800780A2857
:101E80000DD101200B490860094800780A490B4A26
:101E90001268885409480068401C084908600122FB
:101EA00003490248FFF7ACFF10BD0000CC00002042
:101EB00014000020080000200C0100201000002069
:101EC0002DE9F84304460D4616461F464FF000091B
:101ED00094F8390020285DD105B116B90120BDE87C
:101EE000F88300BF94F83800012801D10220F6E7FA
:101EF000012084F8380000BF0020E063212084F82E
:101F00003900FEF757FD8146A684E68400BF002015
:101F100084F8380000BF2BE0E08C401EE084A0680D
:101F2000B0F5805F16D14B460022802120460097F5
:101F300000F0A4FB08B10320D1E7A846B8F80000E0
:101F4000C0F3080021684860206908B9AD1C0FE0A3
:101F50006D1C0DE04B46002280212046009700F0CA
:101F60008DFB08B10320BAE715F8010B2168486022
:101F7000E08C0028D0D14B4600224021204600971B
:101F800000F07CFB08B10320A9E7202084F8390089
:101F90000020A4E70220A2E7704700BFFEE7000090
:101FA00000B587B0142102A8FEF712F900BF1D4842
:101FB000006840F004001B4908600846006800F013
:101FC0000400019000BF00BF00BF0846006840F059
:101FD000010008600846006800F00100019000BFA1
:101FE00000BF00BF0846006840F0020008600846D5
:101FF000006800F00200019000BF00BF0122510301
:102000000948FEF7D1FC4FF40050029001200390E4
:10201000002004900120059002A90348FEF7CEFBA2
:1020200007B000BD1C3802400008024010B50B4844
:102030000B4908600B484860002109488160C16075
:102040004FF480410161002141618161C161016200
:10205000FEF7B6FC08B1FEF76CFB10BD0054004063
:1020600038000020A086010000B587B00020039052
:10207000049005900690019002904FF08040154921
:10208000086041F63F7048600021124881604FF4BB
:10209000FA61C160002101614161FFF75FFB08B196
:1020A000FEF747FB4FF48050039003A90948FFF760
:1020B000D9FB08B1FEF73DFB2020019000200290E3
:1020C00001A90448FFF708FB08B1FEF732FB07B08F
:1020D00000BD00008C00002010B50B480B490860C3
:1020E0004FF416504860002108488160C1600161CA
:1020F0000C21416100218161C161FFF7F3FD08B14D
:10210000FEF717FB10BD000000380140CC00002096
:1021100000BFFEE700BFFEE77047000018B50346AA
:1021200000222548006800F0F00050BB22481C3017
:10213000006800F0805020B12048006800F4C051D1
:1021400018E000BF1C481C30006840F080501A4C5A
:102150001C3420602046006800F08050009000BFD2
:1021600000BF1648006800F4C0512046006820F007
:1021700080502060B1F5C05F03D1B3F5404F00D16E
:10218000012200BF012A05D10D48006840F004007B
:102190000B4C20600A48006820F001001043084CF6
:1021A000206000BF2046006800F00100904201D08E
:1021B000012018BD0020FCE70838024000700040F4
:1021C000003C0240704710B5FEF722FD10BD000034
:1021D00000B593B0342106A8FDF7FAFF142101A839
:1021E000FDF7F6FF1648006820F4C05040F4006088
:1021F00013490860022006900120099010200A90DF
:1022000002200F90002110918104119181051291FB
:1022100006A8FEF75FFF08B1FEF78BFA0F200190CA
:10222000032002900020039004900590012101A852
:10223000FEF7CAFD08B1FEF77CFA13B000BD00003E
:10224000007000404FF000600149086070470000D6
:1022500008ED00E010B50248FFF789FB10BD000053
:102260008C00002010B50268B0F1804F0BD01B4BE2
:10227000984208D01A4B984205D01A4B984202D087
:10228000194B984203D122F070024B681A43B0F107
:10229000804F11D0114B98420ED0114B98420BD069
:1022A000104B984208D0104B984205D00F4B9842E3
:1022B00002D00F4B984203D122F44072CB681A43EC
:1022C00022F080030C6943EA040202608B68C36257
:1022D0000B6883620123436110BD000000040040CD
:1022E00000080040000C004000080140000C0140C4
:1022F0000010014030B50C46816821F47F4142EA6C
:10230000032525432943816030BD0A46816821F0B9
:10231000700142F0070319438160704730B50B46E6
:102320001446026A056A25F001050562816921F0FB
:10233000F00141EA041122F00A021A4381610262AB
:1023400030BD30B50B461446056A25F01005056210
:102350008169026A21F4704141EA043122F0A0024D
:1023600042EA03128161026230BD70B505466C6AB3
:102370000020E085E0842046FFF709FC70BD01687D
:10238000C96821F490710268D1600168496921F03F
:10239000010102685161202180F83A10704710B5A0
:1023A00004462068C06820F040002168C8602020F2
:1023B00084F839002046FFF7EFFD002010BD70B50E
:1023C000044694F83A0022284AD1A068B0F5805F0C
:1023D00013D1A56A206940B920684068C0F308009D
:1023E0002880A06A801CA06219E020684068C0B202
:1023F0002880A06A401CA06211E0206938B92068DA
:102400004068C1B2A26A501CA062117007E0206847
:10241000406800F07F01A26A501CA0621170E08D3C
:10242000401E80B2E085C8B92068C06820F0200056
:102430002168C8602068C06820F480702168C86086
:102440002068406920F0010021684861202084F85C
:102450003A002046FFF70CFD002070BD0020FCE78D
:102460000220FAE770B504462168096921F4405159
:10247000E2681143226811612269A168114362690F
:102480001143E26941EA02052168C96849F20C6218
:10249000914329432268D1602168496921F4407140
:1024A000A269114322685161594A2168914202D1BF
:1024B000FEF7B0FD01E0FEF79DFDE169B1F5004FCB
:1024C00053D100EBC00101EB001162685200B1FB77
:1024D000F2F16422B1FBF2F10A0100EBC00101EB61
:1024E000001163685B00B1FBF3F100EBC00303EB89
:1024F000001366687600B3FBF6F36426B3FBF6F3CD
:1025000003EBC30606EB0313A1EB8301322303EBBA
:10251000C1016423B1FBF3F101F0F80102EB4102C8
:1025200000EBC00101EB001163685B00B1FBF3F14C
:1025300000EBC00303EB001366687600B3FBF6F311
:102540006426B3FBF6F303EBC30606EB0313A1EB20
:102550008301322303EBC1016423B1FBF3F101F0EA
:10256000070111442268916051E000EBC00101EBCA
:10257000001162689200B1FBF2F100EBC00202EBC5
:10258000001263689B00B2FBF3F26423B2FBF3F228
:1025900002EBC20303EB0212A1EB8201322202EB37
:1025A00001116422B1FBF2F101F0F00100EBC00275
:1025B00002EB001263689B00B2FBF3F26423B2FBF0
:1025C000F3F201EB021200EBC00101EB00116368B2
:1025D0009B00B1FBF3F100EBC00303EB0013666853
:1025E000B600B3FBF6F36426B3FBF6F303EBC306C6
:1025F00006EB0313A1EB8301322303EB01116423E8
:10260000B1FBF3F101F00F0111442268916070BD3C
:1026100000380140014691F8390021282CD1886802
:10262000B0F5805F0FD10A6A1088C0F308000B680C
:102630005860086918B9086A801C086209E0086ACD
:10264000401C086205E00B6A581C086218780B6889
:102650005860C88C401E80B2C88458B90868C068E9
:1026600020F080000B68D8600868C06840F0400027
:102670000B68D860002070470220FCE72DE9F0418C
:1026800004460D4617469846069E21E0701CF8B198
:102690002EB1FEF78FF9A0EB0800B04218D92068E0
:1026A000C06820F4D0702168C8602068406920F0BC
:1026B000010021684861202084F8390084F83A003C
:1026C00000BF002084F8380000BF0320BDE8F0817F
:1026D000206800682840A84201D1012000E00020C5
:1026E000B842D3D00020F1E710B50248FFF750FA06
:1026F00010BD0000CC00002000BFFEE70FB4084B67
:1027000010B504A902AA039800F0FAF8044602A939
:10271000002000F078FC204610BC5DF814FB00009F
:102720000730000802480068C0F30220704700002C
:102730000CED00E010B5002804DB0A07130E054A73
:10274000135406E00A07140E034A00F00F031B1F80
:10275000D45410BD00E400E018ED00E002E008C829
:10276000121F08C1002AFAD170477047002001E00B
:1027700001C1121F002AFBD1704700002DE9FF5F45
:1027800082B00021DDE90430020DDDF840B00343E2
:1027900018D044F61050A2F2FF324243151411989B
:1027A00001281FD0A5EB0B00401C5FEA000A4FF088
:1027B00000064E4FDFF83891B046504615D5CAF1A5
:1027C000000413E0119801244AA3012801D16FEA03
:1027D0000B010298119AC0E90031C0E9024206B02B
:1027E000BDE8F09FCBF10000DFE704460021404A3E
:1027F000491842EB0450CDE9001012E0E00707D081
:1028000032463B4640464946FDF7E3FD8046894651
:1028100032463B4610461946FDF7DBFD06460F469D
:102820006410002CEAD1DDE90401DDE90023BAF1EE
:10283000000F06DAFDF7CDFD42464B46FDF7C9FD18
:1028400005E0FDF738FE42464B46FDF734FE0446F0
:102850000E460022284BFDF7B5FE03D84FF0FF309F
:10286000014607E00022254B20463146FDF70AFDD0
:10287000FDF790FE102409E0002C0ADB0A22002359
:10288000FDF76EFC039B30321A55641E50EA0102BC
:10289000F2D1641C039AC4F111031444119A012A61
:1028A00003D0012208430DD10AE0084304D00020E0
:1028B0004FF0110B119072E7A3EB0B056D1E0DE0AD
:1028C0005B4504DD4FF0000205F1010504E003DA89
:1028D0004FF00002A5F10105002AECD002981199F1
:1028E000C0E90231C0E9004579E70000000014406A
:1028F0000000F03F300000000000F0430000E03F27
:102900002DE9FF4F95B09A46884606460025EEE130
:10291000252877D100242746F94A0121039400E0B5
:10292000044316F8013F203B01FA03F01042F7D1AF
:1029300030782A2811D06FF02F033078A0F13002C0
:10294000092A16D8039A44F0020402EB820203EB30
:1029500042021044761C0390EFE758F8042B0392D0
:10296000002A03DA504244F40054039044F0020475
:10297000761C30782E2816D116F8010F44F0040486
:102980002A280DD06FF02F023078A0F13003092BE8
:1029900009D807EB870302EB4303C718761CF3E75C
:1029A00058F8047B761C30786C280FD006DC4C2855
:1029B00017D068280DD06A2814D104E0742810D0EC
:1029C0007A280FD10DE044F400140AE044F4801496
:1029D00001E044F440147278824202D104F580147C
:1029E000761C761C307866280BD013DC582877D0FC
:1029F00009DC002875D04528F6D04628F4D04728B1
:102A00001AD193E118E0632835D0642879D065287D
:102A100012D18BE1702873D008DC6728F1D06928C7
:102A20006FD06E280DD06F2806D1ACE073282CD063
:102A3000752874D0782853D05246179990476D1C4A
:102A400054E1C4F30250022809D003280DD0D8F86D
:102A5000001004280DD00D6008F1040846E1D8F8F4
:102A60000010EA17C1E90052F6E7D8F800100D800F
:102A7000F2E70D70F0E718F8041B8DF80010002045
:102A80008DF80100EB46012003E058F804BB4FF03D
:102A9000FF3061074FF0000102D40DE009F10101A0
:102AA0008946B9420FDA8145F8DB1BF80910002985
:102AB000F4D108E009F1010189468142FADB1BF8F3
:102AC00009100029F6D103985346A0EB09072146C7
:102AD0003846179A00F080FA284400EB090507E011
:102AE00044E008E10DE01BF8010B524617999047AE
:102AF000B9F10109F7D2534621463846179AF2E058
:102B000039E00A21C4F302524FF0000B0091022A6F
:102B100006D058F8040BC117032A09D00AE023E0B5
:102B200008F1070020F00702F2E80201904605E0F4
:102B300000B2C117042A01D140B2C117002906DA38
:102B40000A460021404261EB02012D2202E02205EB
:102B500004D52B228DF80420012203E0E20701D0E6
:102B60002022F7E7914657E00A2100E010214FF0BC
:102B7000000B00910BE010214FF0000B44F0040417
:102B80000827009103E008204FF0000B0090C4F3E9
:102B90000252022A05D058F8040B0021032A08D05B
:102BA00008E008F1070020F00702F2E80201904671
:102BB00003E080B2042A00D1C0B24FF0000922071E
:102BC0002AD53278702A07D0DDF800C08CF0100CBE
:102BD0005CEA0B0C05D00EE040228DF804200122A7
:102BE00008E050EA010306D030238DF804308DF858
:102BF000052002229146009B83F0080353EA0B0351
:102C00000AD150EA010201D1620705D530228DF8C0
:102C100004204FF001097F1E3278582A04D039A2CF
:102C20000C920CAA02920BE03BA2F9E75B46009AD9
:102C3000FDF796FA0C9B9B5C029A521E029213704F
:102C400050EA0102F2D1029804A9081A00F1200BFF
:102C5000600702D524F4803400E001275F4502DDDF
:102C6000A7EB0B0000E0002000EB0B0100900398A5
:102C70004944401A0390E00306D453462146179A6C
:102C8000039800F0A9F90544002706E001A8524680
:102C9000C05D179990476D1C7F1C4F45F6DBE00324
:102CA0000CD553462146179A039800F095F9054430
:102CB00004E030205246179990476D1C0099481E39
:102CC00000900029F5DC08E002980299524600784D
:102CD000491C0291179990476D1CBBF10001ABF1A3
:102CE000010BF1DC5BE100F065F90544761C3078FE
:102CF00000287FF40DAE19B02846BDE8F08F000023
:102D000009280100303132333435363738396162C1
:102D10006364656600000000303132333435363785
:102D2000383941424344454600000000600700D462
:102D3000062708F1070020F00700F0E8022380468C
:102D400003F0004C5FEA0C0001D097A009E02005D9
:102D500001D596A005E0E00701D095A001E0AFF213
:102D60004C001390307823F0004365280CD006DC2B
:102D7000452809D046281DD047287FD13BE066284A
:102D800018D067287AD136E00021112F01DB1120FD
:102D900000E0781CCDE9000104A90CA8FFF7EEFCC7
:102DA000DDE90D010C9A4FF0000B07F101091092BB
:102DB00000914EE04FF000400097CDE9011004A9CA
:102DC0000CA8FFF7DBFCDDE90D020C9B0F994FF01F
:102DD000000B91461093009211B9791C00EB010988
:102DE000B7EB090003D4C0F1FF3B07F10109A9EBE0
:102DF0000700019042E0012F00DA01270021112F86
:102E000001DD112000E03846CDE9000104A90CA83D
:102E1000FFF7B4FCDDE90D010C9A00914FF0000BB7
:102E2000B946109221070FD4009A4A4503DA914619
:102E300001E0A9F10109B9F1010F05DD109AA9F12D
:102E40000101515C3029F4D0B84202DA10F1040FCC
:102E500003DA0121CDE9011010E0002803DC8344EE
:102E6000A9EB000102E0411C494500DD8946A0EBC9
:102E70000B00401C01904FF000400290200705D449
:102E80000198484502DB4FF0FF30019000208DF89B
:102E90004B0002980DF14B07B0F1004F25D00220F6
:102EA0000C902B200D90029800280CDA40420290E2
:102EB0002D200D9007E00A210298FDF7AEF9303180
:102EC000029007F8011D0C99481E0C900029F2DCB5
:102ED00002980028EFD1791E0D980870307800F024
:102EE000200040F0450007F8020D11A8C01BC01DCE
:102EF00002901398007800B1012000EB09010198BD
:102F000001EBE071029801440398401A401E0390BF
:102F1000E00306D453462146179A039800F05CF864
:102F200005441398007818B15246179990476D1CC4
:102F3000E00323D553462146179A039800F04CF836
:102F400005441BE0BBF1000F07DB0098584504DD8A
:102F50001098179910F80B0001E01799302052468D
:102F6000904701980BF1010B401E05F101050190FE
:102F700004D12E205246179990476D1CB9F10001DB
:102F8000A9F10109DEDC05E017F8010B524617999B
:102F900090476D1C0299481E02900029F4DC5346AC
:102FA0002146179A03989EE62D0000002B00000092
:102FB000200000002DE9F041044600251E4617467A
:102FC000880404D405E039462020B0476D1C641EF7
:102FD000F9D52846BDE8F0812DE9F04104460025E9
:102FE0001E469046C80301D5302700E020278804FC
:102FF00004D505E041463846B0476D1C641EF9D53E
:103000002846BDE8F0810A68531C0B6010707047B9
:10301000FDF70AFEFFF7DCF8FEF7C2FFFFF724F822
:10302000FFF75AF8FFF702F84FF400510848FDF790
:1030300065FB012207490848FEF7E2FE0748FEF754
:10304000D5FB03E04FF47A70FDF7A4FBFAE700002C
:103050000000024014000020CC0000208C00002062
:10306000030406080C1018203000000000000000C7
:103070000001020304060708090000000001020322
:1030800004000000A4300008000000203800000008
:103090005C270008DC30000838000020D80500005C
:1030A0006C27000800000000000000000000000085
:1030B0000000000000000000000000000000000010
:1030C000000000000000B4413333754200000000EE
:0C30D000100000000100000068FF1F005D
:0400000508000125C9
:00000001FF
